:020000040000fa
:080000000002040000000000f2
:020000040000fa
:04000800560a000094
:020000040000fa
:04000c00680a00007e
:020000040000fa
:04001000e802000002
:020000040000fa
:040014005e0a000080
:020000040000fa
:04001800700a00006a
:020000040000fa
:04001c00780a00005e
:020000040000fa
:04002000e8020000f2
:020000040000fa
:04002400e8020000ee
:020000040000fa
:04002800e8020000ea
:020000040000fa
:04002c00e8020000e6
:020000040000fa
:04003000e8020000e2
:020000040000fa
:04003400e8020000de
:020000040000fa
:04003800e8020000da
:020000040000fa
:04003c00e8020000d6
:020000040000fa
:04004000e8020000d2
:020000040000fa
:04004400e8020000ce
:020000040000fa
:04004800e8020000ca
:020000040000fa
:04004c00e8020000c6
:020000040000fa
:04005000e8020000c2
:020000040000fa
:04005400e8020000be
:020000040000fa
:04005800e8020000ba
:020000040000fa
:04005c00e8020000b6
:020000040000fa
:04006000e8020000b2
:020000040000fa
:04006400e8020000ae
:020000040000fa
:04006800e8020000aa
:020000040000fa
:04006c00e8020000a6
:020000040000fa
:04007000e8020000a2
:020000040000fa
:04007400e80200009e
:020000040000fa
:04007800e80200009a
:020000040000fa
:04007c00e802000096
:020000040000fa
:04008000e802000092
:020000040000fa
:04008400e80200008e
:020000040000fa
:04008800e80200008a
:020000040000fa
:04008c00e802000086
:020000040000fa
:04009000e802000082
:020000040000fa
:04009400e80200007e
:020000040000fa
:04009800e80200007a
:020000040000fa
:04009c00e802000076
:020000040000fa
:0400a000e802000072
:020000040000fa
:0400a400e80200006e
:020000040000fa
:0400a800e80200006a
:020000040000fa
:0400ac00e802000066
:020000040000fa
:0400b000e802000062
:020000040000fa
:0400b400e80200005e
:020000040000fa
:0400b800e80200005a
:020000040000fa
:0400bc00e802000056
:020000040000fa
:0400c000e802000052
:020000040000fa
:0400c400e80200004e
:020000040000fa
:0400c800e80200004a
:020000040000fa
:0400cc00e802000046
:020000040000fa
:0400d000e802000042
:020000040000fa
:0400d400e80200003e
:020000040000fa
:0400d800e80200003a
:020000040000fa
:0400dc00e802000036
:020000040000fa
:0400e000e802000032
:020000040000fa
:0400e400e80200002e
:020000040000fa
:0400e800e80200002a
:020000040000fa
:0400ec00e802000026
:020000040000fa
:0400f000e802000022
:020000040000fa
:0400f400e80200001e
:020000040000fa
:0400f800e80200001a
:020000040000fa
:0400fc00e802000016
:020000040000fa
:04010000e802000011
:020000040000fa
:04010400e80200000d
:020000040000fa
:04010800e802000009
:020000040000fa
:04010c00e802000005
:020000040000fa
:04011000e802000001
:020000040000fa
:04011400e8020000fd
:020000040000fa
:04011800e8020000f9
:020000040000fa
:04011c00e8020000f5
:020000040000fa
:04012000e8020000f1
:020000040000fa
:04012400e8020000ed
:020000040000fa
:04012800e8020000e9
:020000040000fa
:04012c00e8020000e5
:020000040000fa
:04013000e8020000e1
:020000040000fa
:04013400e8020000dd
:020000040000fa
:04013800e8020000d9
:020000040000fa
:04013c00e8020000d5
:020000040000fa
:04014000e8020000d1
:020000040000fa
:04014400e8020000cd
:020000040000fa
:04014800e8020000c9
:020000040000fa
:04014c00e8020000c5
:020000040000fa
:04015000e8020000c1
:020000040000fa
:04015400e8020000bd
:020000040000fa
:04015800e8020000b9
:020000040000fa
:04015c00e8020000b5
:020000040000fa
:04016000e8020000b1
:020000040000fa
:04016400e8020000ad
:020000040000fa
:04016800e8020000a9
:020000040000fa
:04016c00e8020000a5
:020000040000fa
:04017000e8020000a1
:020000040000fa
:04017400e80200009d
:020000040000fa
:04017800e802000099
:020000040000fa
:04017c00e802000095
:020000040000fa
:04018000e802000091
:020000040000fa
:04018400e80200008d
:020000040000fa
:04018800e802000089
:020000040000fa
:04018c00e802000085
:020000040000fa
:04019000e802000081
:020000040000fa
:04019400e80200007d
:020000040000fa
:04019800e802000079
:020000040000fa
:04019c00e802000075
:020000040000fa
:0401a000e802000071
:020000040000fa
:0401a400e80200006d
:020000040000fa
:0401a800e802000069
:020000040000fa
:0401ac00e802000065
:020000040000fa
:0401b000e802000061
:020000040000fa
:0401b400e80200005d
:020000040000fa
:0401b800e802000059
:020000040000fa
:0401bc00e802000055
:020000040000fa
:0401c000e802000051
:020000040000fa
:0401c400e80200004d
:020000040000fa
:0401c800e802000049
:020000040000fa
:0401cc00e802000045
:020000040000fa
:0401d000e802000041
:020000040000fa
:0401d400e80200003d
:020000040000fa
:0401d800e802000039
:020000040000fa
:0401dc00e802000035
:020000040000fa
:0401e000e802000031
:020000040000fa
:0401e400e80200002d
:020000040000fa
:0401e800e802000029
:020000040000fa
:0401ec00e802000025
:020000040000fa
:0401f000e802000021
:020000040000fa
:0401f400e80200001d
:020000040000fa
:0401f800e802000019
:020000040000fa
:0401fc00e802000015
:020000040000fa
:04020000e802000010
:020000040000fa
:04020400e80200000c
:020000040000fa
:04020800e802000008
:020000040000fa
:04020c00e802000004
:020000040000fa
:04021000e802000000
:020000040000fa
:04021400e8020000fc
:020000040000fa
:04021800e8020000f8
:020000040000fa
:04021c00e8020000f4
:020000040000fa
:04022000e8020000f0
:020000040000fa
:04022400e8020000ec
:020000040000fa
:04022800e8020000e8
:020000040000fa
:04022c00e8020000e4
:020000040000fa
:04023000e8020000e0
:020000040000fa
:04023400e8020000dc
:020000040000fa
:04023800e8020000d8
:020000040000fa
:04023c00e8020000d4
:020000040000fa
:04024000e8020000d0
:020000040000fa
:04024400e8020000cc
:020000040000fa
:04024800e8020000c8
:020000040000fa
:04024c00e8020000c4
:020000040000fa
:04025000e8020000c0
:020000040000fa
:04025400e8020000bc
:020000040000fa
:04025800e8020000b8
:020000040000fa
:04025c00e8020000b4
:020000040000fa
:04026000e8020000b0
:020000040000fa
:04026400e8020000ac
:020000040000fa
:04026800e8020000a8
:020000040000fa
:04026c00e8020000a4
:020000040000fa
:04027000e8020000a0
:020000040000fa
:04027400e80200009c
:020000040000fa
:04027800e802000098
:020000040000fa
:04027c00e802000094
:020000040000fa
:04028000e802000090
:020000040000fa
:100400006f0b21000eff24000e0188000000000089
:10041000000020000000e000020032000001200087
:10042000200288000c000700209620000100200018
:100430000f000700000020000000e0000200320072
:100440000000020000000000800a0200000000001e
:100450000040da000000fe00e00020000000e000a4
:1004600002003200002020009001880000000600f9
:10047000a1028800800078000000eb001a0037001d
:10048000e280400054a0b4009101ba00e280400034
:1004900054a0b4009102ba00e280400054a0b4001d
:1004a0000002eb00472bde00f507b200a601880032
:1004b000602ce10008003a000049eb000201e8006e
:1004c000020039003420ec0002f0a0008301e900b2
:1004d000f9ff3e00040037006128e100010032000e
:1004e0000082eb000b00070011c3ba001101ba0033
:1004f0000604e00003003a000200e000e0ff3a00da
:1005000000000600f607b200a6028800820078000c
:10051000f5ff370004d0a300e20f49001c003900aa
:10052000810278003549ba000201e8000200390072
:100530003420ec0002f0a0008301e9000f0032003b
:100540002549ba000201e800020039003420ec001d
:1005500002f0a0008301e900080032000400e0007e
:100560000600320015c9ba000201e8000200390095
:100570003420ec0002f0a0008301e9008180e80053
:1005800054a0b4000300e000e2ff3a0000000600bf
:100590009102ba00055978008301e900f7ff3200a3
:1005a000c82ade00055978008301e900f3ff320014
:1005b0000400e000f1ff320011d9ba00eeff37006d
:1005c000020604000000000000000400000000001b
:1005d0000040da000000fe000a00fa0011002000ce
:1005e000b1bf9f00c0bf9f006a8057008c02070008
:1005f0004fb897000080fa00000006000a00fa00d9
:1006000051002000b1bf9f00c0bf9f006a8057000b
:10061000850207005fb897000080fa00000006001e
:10062000889fbe0080047800a08580000000e00064
:1006300004003a000e0007000084eb000000e00018
:1006400008003500a88580000900e00005003200a0
:1006500009004400060007000000e00001003d0022
:100660000084eb00080078004f04be000000060084
:10067000800078000100e00003003a000000200044
:10068000a0858800000005000080eb00020020002b
:10069000828f500002003e00a18588000000eb0020
:1006a000000006000800fa001007980021079800d3
:1006b0003207980000000000111180000010200097
:1006c000008060000000e000fbff3200be009000f0
:1006d000010f78000e0037000000000011118000ab
:1006e00000102000008060000000e000fbff3200ee
:1006f0002e009000104078000000fb0020118800c0
:100700002e0090000000e800200798001e0fe9006e
:100710001e0078000000e000efff3a003e0090006d
:100720000080fa0000000600a10221002f0007004f
:10073000800078000080eb000100e000040035003c
:10074000a1022100a0002000020007004f80de006f
:1007500000000600889fbe008a1f78000004be00cb
:10076000c900900069009000808f5000050039009a
:10077000090078008e0007008080eb000000e00098
:1007800016003500084578004900900008587800a8
:10079000c00498001900780000b8a30004003a00d3
:1007a00000a8a30007003200ea4f540005003a00f9
:1007b000090078001e0107008080eb000000e000c7
:1007c00006003a0000c0200019006000020032005c
:1007d00049009000e00498008a80fb000100780046
:1007e0004f0578004f04be0000000600889fbe0041
:1007f0008a9fbe008c1f7800800478000104780076
:100800002f003700c800900068009000808f5000d3
:100810000400390008007800650007000000e000cf
:100820003a00350000402000180060000a00320045
:10083000a1002000090078005000070000067800a1
:100840000c00e00004003200618514000a05460037
:10085000cfd5de0004003700090078003e00070015
:100860000005be000006eb00480090006801900003
:1008700000015100cf91de008a0f51008b8f59008b
:10088000020031000205be000006eb000a01be00b6
:100890008900780022000700480090000a0040000c
:1008a000400498000c00e0000400320008007800ca
:1008b000df0007000000e00014003a008a844400d2
:1008c0001904e000cfff3a0000802000180060000b
:1008d0000600320008007800d5000700800078008c
:1008e0000080eb000100e00009003a0001c0200098
:1008f000988060000000eb00050032004800900086
:10090000600498000000eb00010037000080eb005d
:100910004f0678004f05be004f04be0000000600e1
:100920000202be008001eb0007003700611bb80027
:10093000060140000683400016497800610252001b
:10094000e0825a008301e800e00f5200e08f5a0075
:10095000f6ff3a0000000600800078000000eb007f
:10096000008140000000e8001204e000fcff3a00b3
:1009700001005100cf80de00000006006011b800c9
:100980006103b80006034100e0834b001642780083
:10099000814f520001003a00860178000201e80010
:1009a0000404e000f6ff3a000300780000000600af
:1009b000889fbe008a1f780000047800c80090005d
:1009c000680190000000eb00828f50003d0039006c
:1009d000180078002200290002016000e20f510097
:1009e00007003200012024000000e00001003d006b
:1009f00001202000008c70000080eb0031003700e7
:100a00000200260002006000820f500009003a0038
:100a100038009000808f50000600390008007800f0
:100a200083000700800078000080eb000100e000f8
:100a300024003a001805780000c02000000065007e
:100a400019003a00a804900060022000080040004d
:100a5000808f540014003a00002020000100200084
:100a60002c010700200498000000e00005003a0077
:100a700029049800490498008904e8003904980082
:100a8000080037000a60a0000a0c780040049800b3
:100a9000012020008080400031049800400c980024
:100aa000500c98000c00070028009000500498009b
:100ab000380090006004980000002600180c7000b8
:100ac0000000eb004f0578004f04be000000060058
:100ad0002060200091003700881f7800280b21003b
:100ae0001804e00003003a00f9ff070020c0b3003b
:100af000004c78004f04780000000600889fbe007c
:100b0000000478000800780049000700800478009d
:100b1000000420001800600002003200280090004d
:100b20008b0007000000eb00200498003840900084
:100b30000004e000050035000000fb00a6fe0700f1
:100b40000000e000010032008084eb0018109000eb
:100b50000000e00008003200a8fe07000000e000ee
:100b6000010032008084eb0018109000780007002c
:100b70000000eb001014980000082000180060002e
:100b80000f003200810721000000eb00d10f14009c
:100b900005003a0000004000a1072100008040004d
:100ba0000008eb00030037000000e800e80f5000e9
:100bb000f6ff3a0008007800650007000e003700d5
:100bc000000c780000c0eb00304498006002200068
:100bd0000800400020049800400498005004980049
:100be000400c980060049800500c98007004980025
:100bf00076004400000c9800090078004f04be0005
:100c000000000600889fbe00a8082100f0045400e0
:100c1000480078000000e00001003200b7ff070044
:100c2000890f5400faff3a004f04be00000006008e
:100c3000889fbe008a1f7800000478000800e0004a
:100c40000d003a0088072100700544008004eb0085
:100c5000580078000000e00004003200f4ff0700b4
:100c60000000e00001003d008084eb008a0f54008a
:100c7000f7ff3a002500370000002200180060004e
:100c80008004eb0021003200a80490000f00370020
:100c900009015100384090000000fb0089007800f5
:100ca00080fe07000000e00007003c0028009000e4
:100cb0004004980060049800500c98001890a00020
:100cc0008084eb00110037008084440048019000cc
:100cd000828f5400eeff39002800900040049800f5
:100ce0009800780002c020000281600001003a00f4
:100cf0003800900001e8a300020032006004980070
:100d000001003700500c98008004eb0009007800c7
:100d10004f0578004f04be000000060001002000cf
:100d20000100e00009003200010080000100e00045
:100d3000060032008100e900010088008180400047
:100d40000200800081004100800878000000060059
:100d50000000e000320032004002be00e50f520009
:100d6000e08f5a002e0036000408a3002c003a0041
:100d7000818580000100e00002003200810f5000f8
:100d8000040031002100980080858800170037009a
:100d900082007800210190000200e0000200320091
:100da000800f5100faff39001103be008681400018
:100db000830f50001a003900808f510004003a0060
:100dc0008418430085904b0001007800070037002d
:100dd0000200e0000300320004024000840f5100d2
:100de0000f00390022009800a0009800a000900099
:100df0000100e0000a00320010014000828f500024
:100e000007003a00e20a21000009eb001001be00d1
:100e10003118410021904900a10090002100980064
:100e200000000600889fbe008a9fbe000004be002e
:100e3000718580000100e0000200320001007800ae
:100e40000f00370081858000000b2100050037006e
:100e5000b10f5400a18f5c002b003600648040006d
:100e6000a10090000100e000f9ff3a0012003700f5
:100e7000b20f5400a28f5c002300360064004100d2
:100e8000100178000200e000f9ff3a00110178003b
:100e900081858000000b210005003700b10f540050
:100ea000a18f5c001800360064804000a100900013
:100eb000828f5000f9ff3a005a8580006b858000d0
:100ec000880f5500898f5d00010031000805be00c4
:100ed0000a00be00460007000000e00006003a00dd
:100ee000880f5500898f5d00060032008b05d10008
:100ef0000a85d300f2ff37000a98be0094ff07006e
:100f0000cbff37000000eb004f05be004f04be00d2
:100f100000000600889fbe000002be006500400081
:100f2000e0804800000378000600a10081017800fd
:100f3000060178000204be008000eb00840f54001c
:100f4000858f5c0027003600e50f5400e08f5c00c1
:100f500002003e0068002000090020000800be00da
:100f6000b0ff07008000eb000000e0001d00320031
:100f700090007800a4ff2f00f5ff2f003101420000
:100f8000a1814a00880f5100898f59000300310068
:100f9000a102900005087800080037000881400091
:100fa00002087800a1019000230198001001780048
:100fb0003119140021911c008888be0010017800ae
:100fc0000000eb000200e00004003200a2019000eb
:100fd0000300e000010032006400410070858800d9
:100fe000e4804000010078004f04be0000000600cd
:100ff0000001be008000eb000200e00006003400ab
:101000000200780086fd070080007800e18f400034
:1010100001003a008000eb000100780000000600ab
:1010200000c0da000000060000c0da000000060080
:020000040000fa
:10103000666f00006f620000617200000d0000002a
:0c1040006d610000700d00000000000059
:020000040000fa
:10104c000000fa00042eef00142eef00242eef0007
:10105c00342eef00442eef00542eef00642eef00e0
:10106c0030f9210000708800f0df2f0080708800bc
:10107c00f0f72b00007188000016200080718800aa
:10108c0000002f0000728800300020008072880061
:10109c00003c2000007388000c2eef001c2eef008b
:1010ac002c2eef003c2eef004c2eef005c2eef00b0
:1010bc006c2eef000a2eef001a2eef002a2eef00f6
:1010cc003a2eef004a2eef005a2eef006a2eef0058
:1010dc00062eef00162eef00262eef00362eef0018
:1010ec00462eef00562eef00662eef0030812100c9
:1010fc0070708800c0102000f07088007080200094
:10110c007071880000002f0070728800113a800006
:10111c00f00b2000008160006004200071052000ad
:10112c002374200080497800814978008249780036
:10113c0051348000f00f2c008080600000102000e3
:10114c0001007000503488002136800000f82f0018
:10115c008080600060032000010070002036880051
:10116c00113a80000004200001017000600420008e
:10117c007105200023742000804978008149780093
:10118c00824978000080fa00000006000200fa0094
:10119c00000f780021028000200f200000806000ea
:1011ac001e007000200288000080fa00000006007b
:1011bc000000fa00a2ff070006000700ed00070080
:1011cc008400070000022000f0ff07000080fa00f6
:1011dc00000006000000fa000001eb006004200093
:1011ec007105200023742000804978008149780023
:1011fc008249780000102300203a88004827ef002d
:10120c004e27ef0020032000303a88004420a9002c
:10121c0044c0a90044e0a9004480a9004027ef0085
:10122c000080fa00000006000400fa00013a800079
:10123c00110798000000eb00000f78001e009000d2
:10124c000000e00003003d0010002000000f7800bb
:10125c00160037009e009000000024000080600003
:10126c000000e0000300320020002000000f780096
:10127c000e0037009e0090000020200000806000cf
:10128c000000e0000300320030002000000f780066
:10129c00060037001e009000700060000000e000a7
:1012ac000200320040002000000f78001e00780081
:0812bc000080fa0000000600aa
:020000040000fa
:1012c4008a100000200000008000000000100000d0
:1012d4000200000082000000ffff00000210000076
:1012e40088000000820000000100000000281000b7
:1012f40029102800102810002810280010181000a9
:1013040000000000000000000000000000000000d9
:1013140000000000000000000000000000020800bf
:1013240001015000105110005010500010501000d6
:1013340050104000100000000000000000000000f9
:101344000000000000000000000000000000000099
:1013540000000200080202007810790010781000e2
:101364007810780010781000681000000000000069
:101374000000000000000000000000000000000069
:10138400000000000000000002102a0010521000ab
:101394000000000000000000000000000000000049
:1013a400b21000000200000080000000aa1000003b
:1013b400040000008200000006000000000000009d
:1013c400ae1000000400000080000000b410000013
:0c13d4000200000080000000c60a80003b
:020000040000fa
:1013e0000000fa0080002800001188002222ef008f
:1013f00070062000401188002342a8000080fa00f7
:10140000000006000000fa0000000000101180003b
:10141000610060000000e000fcff3200101180005d
:10142000620060000000e000010032002222a900fa
:1014300030118000004078000080fa0000000600b3
:101440000200fa00004f7800000000001111800037
:1014500000202000008060000000e000fbff3a0058
:101460001e80fb00201188000080fa0000000600aa
:101470000000fa00101180000080fa000000060051
:10148000000f78009e00780001808800ffff370081
:101490000000fa00a008210080077800200a21003f
:1014a000000188000080fa00000006003600f80005
:1014b000c028a9000000eb00f1ff07003600f8008b
:1014c000f3ff0700c048a90010002000ecff070050
:1014d0003600f800c068a90020002000e8ff0700df
:1014e0003600f800c088a90030002000e4ff0700a3
:1014f0003600f800c0a8a90040002000e0ff070067
:101500000000fa002dff0700132ea8000020210084
:10151000a10720000c0007008081280082fc070042
:10152000132ea90000202100a107200006000700bb
:10153000008228007cfc070000902000d1032000de
:0815400001000700f0ff370075
:020000040000fa
:10154800f03fb1000180b10006003500ee0309004c
:1015580000000000403fb1000180b100fbff3d00ea
:101568001000b000203fb0000200350000800900e4
:08157800000000000000060065
:020000040000fa
:0c1580000000fa000080fa0000000600e5
:020000040000fa
:04158c00000000005b
:020000040000fa
:020000040002f8
:04afe000cdff0000a1
:020000040000fa
:020000040002f8
:04afe400ffff00006b
:020000040000fa
:020000040002f8
:04afe8007fff0000e7
:020000040000fa
:020000040002f8
:04afec00bdff0000a5
:020000040000fa
:020000040002f8
:04aff000faff000064
:020000040000fa
:020000040002f8
:04aff400ffff00005b
:00000001FF
